:020000040800F2
:10000000005000208D010008890100080000000058
:10001000890100088901000889010008000000002A
:10002000000000000000000000000000890100083E
:10003000890100080000000089010008890100080A
:100040008901000889010008890100088901000868
:100050008901000889010008890100088901000858
:100060008901000889010008890100088901000848
:100070008901000889010008890100088901000838
:100080008901000889010008890100088901000828
:100090008901000889010008890100088901000818
:1000A0008901000889010008890100088901000808
:1000B00089010008890100088901000889010008F8
:1000C00089010008890100088901000889010008E8
:1000D00089010008890100088901000889010008D8
:1000E00089010008890100088901000889010008C8
:1000F00089010008890100088901000889010008B8
:1001000089010008890100088901000889010008A7
:100110008901000889010008890100088901000897
:100120008901000889010008890100088901000887
:100130008901000889010008890100088901000877
:100140008901000889010008890100088914000854
:100150008901000889010008890100088901000857
:100160008901000889010008890100088901000847
:100170008901000889010008890100088901000837
:100180008901000889010008FEE70000684620F0A8
:1001900007018D4601B500230A4A0B499818884289
:1001A00004D20A49585898500433F5E7084B094AD5
:1001B000934203D2002043F8040BF8E700F00CF858
:1001C000FEE700BF0000002038000020A036000835
:1001D00038000020481C002070B5002000F0E0FE30
:1001E000002001F025F86D4E012000F0E3F86420B6
:1001F00000F0DEFF356901F056F9C4B2C5F3801591
:1002000014B9336959060BD53DB18020012101F0A5
:10021000C3FD8020002101F0BFFD002001F04AF95C
:10022000002000F04DFB002000F042F9B4B95B481B
:1002300001694A0670D45A4A1678422E6CD1594C3C
:100240002378002B68D0584C01F070FC012000216D
:1002500000F0CAF8E278082A46D103E0102000F046
:10026000FBFA59E06FF00700012101F089FD6FF002
:100270008000012101F090FD4FF0FF30012101F0DD
:1002800097FD4FF0FF30012101F09EFD4FF0FF3050
:10029000002101F075FD4FF0FF30002101F07CFDE1
:1002A0004FF0FF30002101F083FD4FF0FF300021BF
:1002B00001F08AFD45B18020012101F06DFD802013
:1002C000002101F069FD08E001F0EDF828B13748A0
:1002D000D0F8E4550DB102F065FA354E336883F37A
:1002E000088831490868804700F08AFF01200146EC
:1002F00000F07AF800F08EFF40F2F314A042254699
:10030000F8D900F07DFF0120002100F06DF800F029
:1003100081FFA842FBD9E7E700F072FF00F07AFF07
:100320003222B0FBF2F464210646B4FBF1F001FB8B
:10033000104342F21071B6FBF1F05C0801FB106350
:1003400041F288318B42B6FBF2F002FB106188BFAC
:10035000C4EB02040120A14294BF002101210A2420
:1003600000F042F8B6FBF4F204FB12660EB900F09E
:10037000C7FD002000F058FD00F04CFF44F61F635D
:100380009842CBD900F09EF80028C7D1002D3FF449
:100390005AAF024908694306C0D454E70008024036
:1003A000D23F0008D33F000804400008E8150020B1
:1003B00000400008C30707B511D5684601F08FFC5F
:1003C00004200121022300908DF80410002205482A
:1003D0008DF8053069468DF8062001F033FC0020C9
:1003E0000EBD00BF00080240C20707D5044B11F044
:1003F000010F4FF0040214BF1A835A830020704784
:1004000000080240124B1A78032A10B50BD8114984
:100410000C6800F07F004FEAC41444EA0010086042
:100420000FD104220EE0072A0FD80B490C6800F008
:100430007F004FEAC41444EA0010086001D108228A
:1004400000E001321A70002010BD4FF0FF3010BDE7
:1004500000050020380000204800002070B5134B34
:1004600088B016461A7804460D468DF80020997813
:10047000DA7858781B798DF802108DF803208DF802
:1004800001008DF8043000F083FD8DF80500F720A1
:100490008DF808006946204609228DF806508DF82F
:1004A000076000F087FA08B070BD00BF183500087B
:1004B00010B9034B187070474FF0FF30704700BF02
:1004C00001050020014B1878704700BF010500208E
:1004D0002DE9F04198460C461546064600F04CFDC5
:1004E00000F08EFEB8F1010F04D0B8F1020F40F019
:1004F000A38189E0B14B14B1012C0AD104E01C7036
:10050000AF4BB04A1C6092E01978072900F2918144
:1005100097E01978082903D030460E210122E5E042
:10052000A948AA4C0278437881782270C278007971
:10053000A34FA44D6370A170E27020713F682D68D5
:1005400000F026FD4FEA556E6071780E0223E071CF
:10055000C7F386417044A3712172C7F3C6234118C3
:100560006372C7F3061253FA81F3C5F38640A27291
:1005700052FA83F250FA82F1C5F3C62353FA81F29C
:100580002073C5F3061050FA82F163730023A07341
:1005900084F80BE0C9B21A460F341846A84221D09D
:1005A00010F807E04FF0080C01335200DBB242EACA
:1005B000DE12062B4FEA4E0ED2B25FFA8EFE0AD939
:1005C000C3F1070302FA03F2D2B25118002304F870
:1005D000012BC9B21A460CF1FF3C1CF0FF0CE3D111
:1005E0000130DBE71BB18B1804F8012BD9B24A426A
:1005F000764902F07F00F723A21C2070637030461A
:10060000521A00F0D7F914E114B1012C53D110E0C3
:100610006A4B6B496B486E4A1C700C6004606D4BF2
:100620006D496E4814706E4A1C700C600460146052
:10063000FFE062480178072907D8654908782A1839
:100640000A702846FFF7DEFEF3E008292BD1604848
:100650000278AB18037060480368B3F5806F80F0D0
:10066000E880584E5E4F5D4C366838682268072433
:100670000132C5F380176D00072A47EA4000EDB24A
:1006800006D9524AD0540133B34228BF092100226F
:10069000013CEDD1524C2060504802604E4A13603C
:1006A000464B1970C5E0092902D14A4B1D70C0E0C4
:1006B0000C220270BDE0434B47481F680168B942F5
:1006C000FFF42AAF3D4A13780C2B03D130460E219C
:1006D00042460BE03E4A3F4813780178584200F00A
:1006E0007F02914205D030460E210322FFF7B6FE6D
:1006F0009FE0334B3B4901240C701C6844EA07001F
:10070000830740F08C80384A944202D86FF007008B
:1007100087E000F0D9FC00F100614B1E9C426DD8CF
:1007200001F0F6F900230C21594330480A5894424D
:1007300024D12F492F488C4201D10022026001218F
:10074000006801FA03F1014203D02B4D4FF000087D
:100750002EE041EA000227490A60244A0C2000FBEF
:1007600003230221586801F037FA0828EDD04FF032
:10077000FF3001F0E3F96FF0030052E001330C2B7E
:10078000D1D1E2E76B7829781A0442EA012315F8FF
:10079000011CAA780B4343EA026101F0FFF904351A
:1007A0000828E4D101F0ACF901F0A2F908F104083D
:1007B000B84508EB0400E5D342E000BF0005002087
:1007C00038000020480000201835000850000020A4
:1007D000400000204C000020FC04002044000020C9
:1007E0003C00002001050020FF3F000818340008ED
:1007F00000400008F804002051000020B4F1005F20
:1008000084D300F069FC00F10050421E94423FF690
:100810007DAF20460E493A4602F0F4FD10E06FF03D
:10082000080043420E213046DAB2FFF717FE00F00F
:1008300067FB0020BDE8F0814FF0FF30BDE8F0819C
:100840000449087842420F21304602F07F02ECE76B
:10085000500000204000002010B5114B88B01A78DD
:1008600099788DF800200446DA7858781B798DF84D
:1008700002108DF803208DF801008DF8043000F08F
:1008800087FBF7218DF8050001208DF806008DF813
:10089000071020466946082200F08CF808B010BD09
:1008A0001835000808B52020FFF7D6FF1020FFF705
:1008B000D3FF024B0020187008BD00BF01050020C7
:1008C00010B5044600282CD1174A1849102313707C
:1008D0000B70174A174B1849186010600860174BC7
:1008E000174A184918601060086000F0E3FE164BC4
:1008F000164A1C70164B174914701C700A78C00FEA
:10090000422A04D114490A78110658BF1A70134BB1
:1009100000211980124900220023C1E9002340422E
:1009200010BD4FF0FF3010BD00000020010000207E
:10093000040500200C0500203005002034050020AF
:100940002405002010050020140500201C050020AF
:1009500016050020D03F0008D13F000818050020F0
:100960002805002010F0F00F38B504460D4604D1DC
:1009700001280CBF0C4B0D4B1C780D4B1A6864F30F
:10098000071542B904F0F004102C0AD12846BDE83E
:10099000384000F0FDBE2046294690470028F1D09F
:1009A00038BD4FF0FF3038BD0100002000000020AE
:1009B000040500202DE9F04180460E46174600242C
:1009C000BC4235D23B1B022B0DD0032B19D0012B7F
:1009D00019D1325D052161F3030562F30F2501345E
:1009E0006FF317450AE03119305D4A78062363F347
:1009F000030560F30F2562F3174502346FF31F659B
:100A00000FE0072000E0042060F303053019335D98
:100A10004178827863F30F2561F3174562F31F6510
:100A2000033440462946FFF79DFF0028C8DA00E05E
:100A30000020BDE8F081000030B5A1B0F0238DF8B2
:100A40000030134B7E2232258DF803201A788DF862
:100A5000045000240F258DF801408DF802408DF8D8
:100A600005208DF8065002AB0D5D5A1E35B10134DC
:100A70001A4603F8015C0133642CF5D1F72102F822
:100A8000011B6946521AFFF795FF21B030BD00BF28
:100A90001605002000B589B0F0238DF80030002342
:100AA0008DF801308DF802307E238DF8033032232B
:100AB0008DF80430084B8DF806101B788DF8072050
:100AC000F7218DF80810092269468DF80530FFF7E7
:100AD00071FF09B000BD00BF16050020F0B5454EFE
:100AE0008BB0337804460D461746FFF7F1FC00281B
:100AF0007CDA31780D295AD001D829B169E00E2964
:100B000074D00F2965D15AE03B4B1DB1012D03D1A3
:100B10001F706BE01D7069E01878052829D011D886
:100B2000022820D004D801283DD12046334937E09F
:100B300003281BD0042836D100F0C0FA3049024601
:100B4000684623E0082826D006D8062819D00728AA
:100B500029D100F0C1FA16E009281FD07F2822D140
:100B6000FFF7A0FE42E02046264919E0204626492C
:100B700016E0684600F0B4FA0028204609DA234956
:100B80000EE000F0A1FA22490246684600F086FF16
:100B90002046694604E020461E4901E01E492046E1
:100BA000FFF74AFF22E020460E210D2204E0022D2D
:100BB0001CD120460E211022FFF76CFF16E0174AC9
:100BC0000DB1012D01D1556010E0526872B9204677
:100BD000F2E70E210A462046FFF75CFF0F49054B5E
:100BE0000A7800206FF307020A70187000200BB01B
:100BF000F0BD00BF0805002015050020B83400082E
:100C0000DA340008BF340008D0340008DF340008AC
:100C1000E1340008E4340008F63400081C05002024
:100C2000F72910B50A465AD82E4B197801F0080357
:100C300003F0FF041BB12C4B1B7883424CD1A0F175
:100C40001103062B48D9284B187004BB254803789C
:100C500003F00703042B03D82448C05C904221D141
:100C600001F00701052903D121480178914219D1EA
:100C70005A1C1C4B197802F0070060F3020105288A
:100C800019702CD9CAB242F00800187027E0130678
:100C900011D5F72A06D101F01001CBB213B1022110
:100CA000FFF71CFF0F4B134A197800206FF3070161
:100CB0001970107010BD01F01004E4B244B9094B72
:100CC000197841F0100119700A4B21461A7000E0A2
:100CD0000121FFF703FF02E04FF0FF3010BD0020BD
:100CE00010BD00BF1C0500201405002018350008A9
:100CF000160500200805002001F00F032DE9F0473C
:100D00000F46C1F30728C1F307494FEA116A03F1FF
:100D1000080101F00F010629064602D8002A58D121
:100D20007AE0B8F1F00F05D003F10C0000F00F01EC
:100D3000032929D83A49D1E9004554EA050023D1CD
:100D400006F0F004302C4FF000000CD0502C13D0E3
:100D5000102C19D1334C208006F00F00012404FA26
:100D600000F0088010E02F4C208006F00F000124D6
:100D700004FA00F0488007E02A4C208006F00F00BB
:100D8000012404FA00F08880991E0D2944D8DFE878
:100D900001F01E1E071B24244343434343434307E0
:100DA000B8F1F70F13D83046414607F00F07FFF7A9
:100DB00037FF0F2F30D049463046FFF731FF30461E
:100DC0005146FFF72DFF27E0B8F1F70F05D91AB309
:100DD000304627F0F00190471EE01A1F12F0FF0482
:100DE0001AD030464146FFF71BFF012C0CD030468D
:100DF0004946FFF715FF022C05D030465146FFF754
:100E00000FFFD04600E0C846B8F1F70F04D1044800
:100E100000220023C0E900230020BDE8F08700BFC6
:100E2000280500201805002013B5044601A800F08D
:100E3000C7FC002807DB0199C1F3031010302246DC
:100E4000FFF75AFFF2E72849D1E9002352EA0300ED
:100E500047D0264B1888B0F57A7F42D90A8862B10C
:100E6000002142FA01F313F0010003D101311029EE
:100E7000F7D101461031C8B21AE04B885BB143FA92
:100E800002F010F0010103D10132102AF7D10A4615
:100E90003032D0B20CE0888850B140FA03F111F042
:100EA000010203D10133102BF7D113465033D8B2CE
:100EB0000F4B1A7802F00801C9B249B10D490978FF
:100EC000814205D16FF307021A700B4B00221A7092
:100ED0000A490A6802B19047034800220023C0E98A
:100EE000002300201CBD00BF28050020180500209D
:100EF0001C050020140500200805002034050020F2
:100F000010B500F089FC044600F048F8054B1A883B
:100F10004FF6FF718A4240EA040001D001321A8084
:100F200010BD00BF18050020114BF7B51C6807461F
:100F3000E4B1C1F30764C1F30720C1F307420D4DCB
:100F40008DF8064001F00F0100246E5C8DF804005E
:100F50008DF805202546B54208DA01AA044B515DFB
:100F60001B683846984701350443F4E72046FEBD28
:100F70000C050020A8340008012803D0034B18708A
:100F8000002070474FF0FF30704700BF0100002085
:100F9000014B1878704700BF1605002000207047ED
:100FA00013B5044600287AD11F20012100F0B8FEB5
:100FB0003C4B00949A6802F00C00082802D10120F2
:100FC00000905DE0196841F001021A609C601868A9
:100FD00020F08471344821F480321A605860196816
:100FE00021F480221A60DC600194186840F480319A
:100FF00019602C4B1A6802F40030009001994A1CC9
:101000000192009818B90199B1F5A06FF1D11B6850
:1010100013F4003218BF01220092009801282FD14A
:10102000204B2248196C41F080521A64016841F447
:101030008042026098689860996841F400429A6022
:1010400098681B4A40F4A05199605A60186840F0B3
:10105000807119601868134A8101FBD5154B40F265
:1010600005611960906820F003019160936843F076
:10107000020090600B4A916801F00C03082BF9D133
:101080000D48002100F024FD4FF4407000F016FDE3
:10109000009A012A14BF4FF0FF30002001E04FF00A
:1010A000FF301CBD003802401030002400700040AA
:1010B0000C544007003C024000000008014B186837
:1010C000704700BF002004E0024B188881B28802FC
:1010D000704700BF227AFF1F4FF440307047000076
:1010E00000230B4A591089180A78D90758BF1209EA
:1010F00002F00F02092A94BF302137218A18C25406
:101100000133182BEDD1002101760846704700BF4E
:10111000107AFF1F074B1A681AB9EFF310810648BF
:1011200001604FF0010080F310881A68511C1960AB
:10113000002070473C05002038050020074A13684E
:101140003BB1581E106038B905490A6882F310880F
:1011500002E04FF0FF307047002070473C05002050
:10116000380500200F291CD80F4BDA68D343C3F38E
:101170000222C2F1040301FA03F1090100F1604304
:10118000CAB203F56141012381F8002342B200F0A5
:101190001F00510903FA00F2044840F82120002002
:1011A00070474FF0FF30704700ED00E000E100E0D5
:1011B00030B5012185B00446102000F0C9FD54204F
:1011C0004443611E0D4CADF804104FF6FF7300252B
:1011D000204601A90293ADF80C50ADF8065000F07E
:1011E000FFFD01210A46204600F044FE2046012171
:1011F00000F034FE284605B030BD00BF00100040AE
:101200000348012108B5416200F048FE002008BDF6
:1012100000100040054810B50121446A00F033FE7B
:1012200000280CBF20464FF0FF3010BD00100040DA
:101230001FB50446B8B90120014600F095FDA7206E
:101240004FF6FF73ADF8040001A909480293ADF809
:101250000C40ADF8064000F0C3FD0548012100F048
:10126000FDFD204601E04FF0FF3004B010BD00BF8F
:1012700000000140044B596A89B25A6A521A92B26C
:101280008242FAD9002070470000014012230B80EF
:10129000004870475435000804230B80004870470D
:1012A00050350008704770477047704770470020FE
:1012B000704700207047000065230B80004870478E
:1012C0009335000810B50B4B8CB098781A888DF8C0
:1012D000060002A80C46ADF80420FFF701FF002825
:1012E000ACBF02A801A80449224601F049F902480E
:1012F0000CB010BD84350008E01B002070B5164B03
:1013000086B00A4601AC03F11006186859682546F4
:1013100003C50833B3422C46F7D118880023288030
:101320000E495818017859B120395F298CBF002126
:1013300001210133202B06D00029F1D101A805E0BD
:10134000002BFBD001E00029F8D00448044901F04B
:1013500017F9034806B070BDE4340008E03F000808
:10136000E01B0020FFF7CABFFFF7C8BF1146FFF719
:10137000C5BF00001FB5084C0A462068616801AB74
:1013800003C3A068054C1860214601A801F0F8F8D5
:10139000204604B010BD00BF87350008E01B0020C8
:1013A000022908B503D10846002100F04BFA0020BD
:1013B00008BD012908B503D10846002100F03AFA1A
:1013C000002008BD10B50221044601F02AFD204688
:1013D000812101F026FD002010BD002000F070B931
:1013E000012000F06DB90000022110B54022044632
:1013F0000B4601F0F5FC812140220223204601F03A
:10140000EFFC0221034A0448402301F023FD0020A1
:1014100010BD00BFA8150020E815002013B501205D
:10142000164C014600F07CFC032002214FF4C0530F
:1014300000228DF805008DF80410204669460093BF
:101440008DF806208DF8072000F0FCFB20460B21CC
:101450000A2200F04DFC0A2220460C2100F048FC34
:1014600001214FF4804000F07FFC8020012100F03A
:1014700063FC012000F036FB1CBD00BF00000240F1
:1014800043200821FFF76EBE014801F06FBD00BF89
:10149000E815002080B2FFF7EDBE4FF47A73584391
:1014A00080B2FFF7E7BE4FF0A0431868C0F3C0401A
:1014B00070470000022837B5054642D8FFF7F3FF12
:1014C0000446FFF78AFF45BB14F0FF0F25D01E4CE2
:1014D0002046FFF7A3FF1D481D491E4AC4F8E40536
:1014E000C4F8E81520460121C4F8EC2501F0AEF857
:1014F000204601F050F9204601F0C0F92046FFF7E0
:10150000BFFF01210323204684F8101184F8123113
:10151000FFF76AFFFFF764FF11E00D4B0D4A0093E0
:1015200001210A4B084800F0BBFD074801F016FDF9
:101530004CF25030FFF79EFE034801F007FD0020FB
:1015400001E04FF0FF303EBDE815002020350008D7
:10155000F83500086835000870B5254CD4F8E43536
:10156000002B43D0FFF7D6FD22480178002939D05F
:10157000D4F8DC63B608B3B2002B33D01E4A10880F
:1015800081B21BB2C1F5007293422BDA00241B4DCD
:1015900055F82450C5F3031010302946FFF7C4FC5A
:1015A00090B9174B174A198889B242F82150198807
:1015B0004A1C91B2B1F5007F198028BF18800E48EF
:1015C00003885A1C91B201800134301B03B2002BF6
:1015D000DDDC0849064800220A7040230221074A40
:1015E00001F038FCBDE87040FFF7A8BD70BD00BF3A
:1015F000E81500204C15002042050020A815002009
:101600004E1500204C0D0020234BD3F8E40510B5F7
:10161000002840D0FFF77EFD20490A78002A36D105
:101620001F4B188881B2002931D01E4A107800283B
:101630002DD019888AB2102A98BF1988174B94BFE9
:1016400089B210210120187015480288531A9AB2E5
:10165000028000220BB29A4213DA134B13481C8803
:10166000A4B250F82440124840F8224018880130B3
:1016700080B2B0F5007F188001D3002018800132BD
:10168000E8E705480A4A81219B0001F000FCBDE81B
:101690001040FFF753BD10BDE8150020480D002095
:1016A0005015002056150020521500204805002036
:1016B00058150020002814BF4FF0FF30002070475D
:1016C0000D49002310B50B800C4C0D4923800B8075
:1016D0000C4C0D4923700B800C4C0D4923801A468D
:1016E0000B800C4C0C4B012110B121701A7001E0E1
:1016F00022701970002010BD420500204E150020F8
:10170000440500204C150020501500204005002005
:101710005215002056150020480D002038B5184CF1
:101720002378054613B94FF0FF3038BD15480188BE
:101730008AB2B2F5FF7F07D9FFF766FF2378002B47
:10174000F1D06FF0010038BDFFF7E4FC0E4B0F49FC
:10175000188882B2501C41F8225082B21A8019882F
:1017600088B2B0F5007F01D300221A80054B19889A
:10177000481C82B21A80FFF7E1FC002038BD00BF90
:101780005615002050150020400500204805002077
:1017900010B504462046FFF7C1FF831C08D1074B54
:1017A0001A8842F20F718A4207D8501C1880F1E75C
:1017B000002802DB014B00221A8010BD54150020C6
:1017C000124B10B50446188881B2D9B1FFF7A2FCBC
:1017D0000F4B10491A8890B251F8202022601C88C3
:1017E000601C81B2B1F5007F198001D300221A80FC
:1017F000064C2388581E81B22180FFF79FFC228867
:1018000090B210BD4FF0FF3010BD00BF4205002068
:10181000440500204C0D002008B5054801F01EF8D5
:1018200018B9FFF799FEFFF7EFFE002008BD00BFD3
:10183000E8150020024B00221A70FFF7E5BE00BF3A
:10184000480D0020024B01221A70FFF785BE00BF31
:101850004C15002020B10368197001684A1C026011
:1018600070472DE9F843141E8046894601DC202785
:101870000FE0002219F8021009B10132FAE7A24282
:10188000B4BFC2EB04040C4613F0020F0CBF2027B8
:101890003027DB070CD42546002D05DD40463946B0
:1018A000FFF7D8FF013DF7E724EAE476A41B00E048
:1018B00000263546C6EB0903595D21B14046FFF7C6
:1018C000C9FF0135F6E72646002E05DD40463946BC
:1018D000FFF7C0FF013EF7E7002CACBF2819281C1A
:1018E000BDE8F8832DE9FF470C9EDDF83480814682
:1018F0000C4651B930228DF804208DF8051032467F
:1019000001A94346FFF7ADFF35E033B10A2A04D100
:10191000002902DA4C42012700E0002704AD002331
:1019200005F8013DAA466CB1B4FBF2F302FB134487
:10193000092C02DD0E993A396418303405F8014D4E
:101940001C46EFE787B14EB118F0020F06D04846AB
:101950002D21FFF77FFF013E012705E02D2005F136
:10196000FF3A05F8010C00274846514632464346E7
:10197000FFF777FF381804B0BDE8F087F0B589B0FD
:1019800006460D46059200242B7823B1252B79D1EC
:1019900068786A1C28B9002E7BD03068002202705B
:1019A00077E025286DD02D2802D1AA1C012300E064
:1019B0000023174601323978302902D143F002035F
:1019C000F7E700223978A1F130005FFA80FC3D464C
:1019D0000137BCF1090F03D80A2505FB0202F1E724
:1019E000732909D1059F391D059139682A4F304661
:1019F000002908BF394641E064290ED18DE80C006A
:101A0000059961230293081D096805900A22304652
:101A10000123FFF767FF241839E0782906D10599DB
:101A2000081D8DE80C000590612207E058290AD1B5
:101A30000599081D8DE80C00059041220292304660
:101A4000096810220BE075290BD18DE80C0005996F
:101A500061230293081D096805900A22304600237D
:101A6000D7E7632913D10599081D0968059000205F
:101A70008DF81C108DF81D0007A93046FFF7F1FE08
:101A8000C9E7154630462978FFF7E4FE01340135F1
:101A90007AE7204609B0F0BD143600080EB40FB541
:101AA00005AA019052F8041B01A80392FFF766FFF4
:101AB00004B05DF804EB03B07047000040F0BF6075
:101AC000024B40F40031D960704700BF00ED00E0E8
:101AD00021F0604121F07F02014B10439860704774
:101AE00000ED00E0014B5861704700BF003C014031
:101AF000024B1A6842F4006018607047003C0240D4
:101B0000024B1A6842F4805018607047003C024053
:101B1000044B1A69002A04DA034800F1883158603E
:101B200059607047003C024023016745024B1A6927
:101B300042F0004018617047003C0240014BD86001
:101B4000704700BF003C02400B4BDA68D0030DD455
:101B5000D868C1060CD4D96811F0EF0F0AD1DB6840
:101B600013F0020F0CBF08200720704701207047B8
:101B70000520704706207047003C024007B5082347
:101B80008DF80730FFF7E0FF8DF807009DF807009C
:101B90000128F7D09DF807000EBD000070B505467E
:101BA0000E46FFF7EBFF082813D10A4C236923F4F4
:101BB00040702061216941F400722261236943F081
:101BC000010020612E60FFF7D9FF216921F0010299
:101BD000226170BD003C024070B5064641B101294A
:101BE00008D0022914BF4FF440754FF4007503E08C
:101BF0000D4601E04FF48075FFF7C0FF08281ED1A5
:101C00000F4C236923F44070206121690D43256145
:101C1000226922F0F8032361206940F002010E439B
:101C20002661226942F480332361FFF7A7FF21690F
:101C300021F002022261236923F0F801216170BDC5
:101C4000003C0240F0B50E680022012303FA02F3C3
:101C500003EA06059D423ED107680C79530027FA36
:101C600003F707F00307A7420DD007684FF0030CF6
:101C70000CFA03FC27EA0C070760076804FA03FC68
:101C80004CEA07070760013C012C17D8876803243A
:101C900004FA03F427EA040787604C79876804FA9A
:101CA00003F43C438460446824EA05058C7945606C
:101CB000456804FA02F4A4B22C434460C5680324C6
:101CC00004FA03F425EA0405C560CD79C46805FA71
:101CD00003F32343C3600132102AB6D1F0BD0021C3
:101CE0004FF6FF730360017141718171C1717047DB
:101CF00001F00703C908083130B59B0050F82150A6
:101D00000F2404FA03F425EA040440F8214050F8B3
:101D1000214002FA03F2144340F8214030BD000094
:101D2000044B1A6B09B1104301E022EA000018636A
:101D3000704700BF00380240044B5A6B09B1104392
:101D400001E022EA00005863704700BF00380240FB
:101D5000044B1A6C09B1104301E022EA0000186438
:101D6000704700BF00380240044B5A6C09B1104361
:101D700001E022EA00005864704700BF00380240CA
:101D8000044B1A6909B1104301E022EA000018610E
:101D9000704700BF00380240044B5A6909B1104334
:101DA00001E022EA00005861704700BF003802409D
:101DB000044B1A6A09B1104301E022EA00001862DC
:101DC000704700BF00380240044B5A6A09B1104303
:101DD00001E022EA00005862704700BF003802406C
:101DE0001C4A038890429BB212D002F58062904256
:101DF0000ED0B0F1804F0BD0A2F58032904207D0C8
:101E000002F58062904203D002F58062904203D1D5
:101E10004A8823F0700313430F4A904208D002F51A
:101E20008062904204D023F440730A899BB213432A
:101E300003804B680A88C362064B0285984203D030
:101E400003F58062904201D1897A01860123838261
:101E5000704700BF0000014000100040038819B126
:101E600099B241F0010303E023F001010A04130CCD
:101E70000380704783899BB20AB1194301E023EACA
:101E8000010181817047038A828911EA030092B2BD
:101E900003D011420CBF002001207047C9438AB211
:101EA00002827047D0F8E83510B5044618698047BB
:101EB000032184F81211002010BD08B590F81231EA
:101EC000042180F8133180F81211D0F8E805C268B7
:101ED0009047002008BD08B5D0F8E435D96901B1B4
:101EE0008847002008BD08B5D0F8E435196A88474E
:101EF000002008BD08B5D0F8E435596A88470020AD
:101F000008BD002110B5402204460B4600F068FFD2
:101F1000802140220023204600F062FFD4F8E8052B
:101F2000012384F812314168A0788847002010BD51
:101F300013B56946044600F023F99DF8001001F03E
:101F40001F03012B0CD006D3022B0ED1204669466D
:101F500000F046F90EE02046694600F0BBF909E0C2
:101F60002046694600F09EF904E0204601F0800119
:101F700000F0A8FF00201CBD70B50446002947D121
:101F800090F81131022B37D1D0F83821D0F8243114
:101F90009A4211D9D21AC0F83821C078012804D148
:101FA000D4F82811CB18C4F828312046D4F82811C9
:101FB00092B200F0B5F81FE0D0F83C51B5FBF3F653
:101FC00003FB16565EB99D4209D3D0F840219542D5
:101FD00005D2324600F0A4F8C4F840610CE0D4F811
:101FE000E405C16829B194F81231032B01D12046D0
:101FF0008847204600F0B5F894F81621012A10D140
:10200000094920690B680022436084F8162108E022
:10201000D0F8E4355B6923B190F81221032A00D18E
:102020009847002070BD00BFDC1B002010B504469F
:1020300059BB90F81111032930D1D0F89023D0F872
:102040007C339A4214D9D21AC0F89023C078012860
:1020500004D1D4F88013C818C4F880039A4228BF6A
:102060001A462046D4F8801392B200F062F815E0C8
:10207000D0F8E4150B6923B190F81221032A00D19E
:102080009847204600F05EF808E0D0F8E4359B69F8
:1020900023B190F81221032A00D19847002010BDE7
:1020A0002DE9F041069F0446164698460D46FFF777
:1020B000B5F920462946C4F8E485C4F8E875C4F8A3
:1020C000EC6500F042FED4F8E835186880472046F9
:1020D000BDE8F041FFF7D4B9D0F8E43510B50446B7
:1020E0001A689047D4F8E80581688847002010BD39
:1020F00008B5D0F8E4355A689047002008BD38B5D7
:1021000004460D46C4F83C21C4F838211346022287
:1021100080F8112100212A4600F0B9FE002038BDC8
:1021200010B50C4613460021224600F0B0FE0020F8
:1021300010BD10B50C4613460021224600F08AFE61
:10214000002010BD0021042310B50A46044680F883
:1021500011310B4600F09BFE204600F0D8FD002018
:1021600010BD0021052310B50A46044680F8113140
:102170000B4600F06FFE204600F0C9FD002010BDA8
:1021800090F8CC350B7090F8CD254A7090F8CE358C
:1021900090F8CF2503EB02224A8090F8D03590F8D2
:1021A000D12503EB02228A8090F8D23590F8D3250E
:1021B00003EB022293B2CB800121C0F8403180F8BA
:1021C0001111704710B58021044600F07BFE2046B7
:1021D000002100F077FE2046BDE8104000F097BDDA
:1021E00070B54E788A88012E04460D46D3B211D0C0
:1021F00029D3032E51D190F81221022A2AD0032A82
:1022000049D14988A9B9A3B1802B12D0194600F051
:1022100059FE0EE090F81221022A1BD0032A3AD16F
:102220004988002939D153B1802B08D0194600F0D4
:1022300067FED4F8E405294683682046984720467F
:10224000FFF780FF29E090F81251022D02D0032DF4
:1022500021D106E00BB3802B1FD0194600F032FECF
:102260001BE012F0800F4FF0280006D002F07F0232
:1022700000FB024191F81E3103E000FB034393F899
:102280007633074803B10123036005492046022243
:10229000FFF735FF01E0FFF795FF002070BD00BF9D
:1022A000A015002038B590F81231032B04460D46D6
:1022B0000CD10A79012A09D8D0F8E4359A689047F8
:1022C000E88828B92046FFF73DFF01E0FFF77AFFD5
:1022D000002038BD70B54B78052BA2B004460D46E2
:1022E00000F0838008D8012B00F01581C0F0DA805F
:1022F000032B40F03381E6E0082B00F0C58003D8C3
:10230000062B40F02B8106E0092B00F08E80552B28
:1023100040F024810FE14888010A4B1E062B00F291
:102320001D81DFE813F007001A0027001B011B01C5
:102330001B011B01D4F8EC15A0780A680DF1060109
:1023400090470146E888402803D094F81231012BC9
:102350003BD10822ADF8062037E0D4F8E4050DF1B2
:102360000601826AA0789047022343700146C4F8B0
:10237000F0052AE0C1B2A07805291FD8DFE801F0F6
:1023800003070B0F1317D4F8EC25536812E0D4F8A9
:10239000EC158B680EE0D4F8EC35DB680AE0D4F875
:1023A000EC25136906E0D4F8EC154B6902E0D4F88B
:1023B000EC2593690DF10601984705E0D4F8E43562
:1023C0000DF10602DB6A98470146BDF806000028B9
:1023D00000F0C880EA88002A00F0C480824228BF4A
:1023E0000246ADF806202046B5E08A88002A40F073
:1023F000B580C988002940F0B1806E8890F812211C
:1024000006F07F03032A1E4600F0A88080F81431EE
:10241000194600F093FD2046FFF794FE0EB102200E
:1024200000E0012084F812019CE08B784F4A012BD8
:10243000137000F2938090F81221022A03D0032A2D
:1024400040F08E8008E0002B61D00121032380F84A
:10245000101180F8123114E043B9022180F81211F2
:1024600080F810311946FFF743FE50E090F8101144
:1024700001294CD0FFF73CFE3C480178204684F807
:102480001011FFF729FE42E0CA88012A66D190F8B0
:102490001231022B04D0032B62D100F588715AE06F
:1024A000334958E090F81221931E012B58D8314837
:1024B000D4F81821002101600AB1022303602046EC
:1024C0002C49022247E04B88012B2DD0022B49D109
:1024D0008A8812F0FF0F45D10069110A4A1E43682D
:1024E000042A0FD8DFE802F0030507090B000120DA
:1024F00006E0022004E0032002E0042000E00520C2
:1025000060F306131C490B60012384F81631204642
:10251000FFF718FE26E090F81221931E012B1FD81A
:102520004A88012A1ED10023D4F8E425C4F81831C2
:1025300093689847EBE70978C0290FD16B886BB98E
:10254000EE88802E0AD10D49324602A800F05AFFCB
:10255000204602A93246FFF7D2FD03E02046294675
:10256000FFF730FE002022B070BD00BF9C15002098
:10257000A415002098150020DC1B00201B36000845
:1025800030B5C0B10023C55CDCB20133002DFAD1F7
:10259000631C5B00138003220B704A700138022316
:1025A00010F8012F3AB15C1CCA54E2B20233002485
:1025B0008C54DBB2F4E730BD37B50023104C0193E7
:1025C00005460320FEF766FFE8680269013C0192B8
:1025D00013D001990029F4DA019B43F00102019222
:1025E0000199074A01610369013A019302D00199F7
:1025F000C907F8D40320FEF74DFF00203EBD00BF01
:10260000410D030030B5C4786CB900EB8200033390
:10261000D0F8D0509B1022469A4204D051F82200A4
:1026200001322860F8E7002030BD10B50332D0F841
:10263000D0409210002393424FEA830004D02068D8
:1026400041F823000133F6E7081810BDF0B5002368
:10265000012240240129C370827084800CD102239E
:10266000082604224FF4A0740372C17206704270EF
:10267000C4804FF0A04309E041B90C23C17203703C
:1026800006214FF4A065204B4170C58003F5006121
:1026900045780161C3600246194600240432AC4209
:1026A00001F1200608D201F5106701F530611165CE
:1026B000576101343146F1E703F5806403F5886121
:1026C00044610478C0F8CC10002203F5A061A24256
:1026D00006D200EB82050132C5F890102031F6E7F2
:1026E00003F580510022A24207D200EB820501329D
:1026F000C5F8D01001F58051F5E703F56063C0F827
:102700000C310020F0BD00BF0000044038B5037A52
:102710000025012B0446C3681FD1986B617A65F3CD
:10272000104009B140F480109863DA686FF38612A4
:102730006FF396526FF351426FF3D342DA60204643
:10274000FFF73AFFE378012B19D1052161F3440526
:10275000E06845F02005856011E0DA6842F040014C
:10276000D960FFF729FF607AE36800280CBF4FF4B7
:1027700034124FF474129A631420FEF78EFEE2783E
:10278000012A06D1E368996821F03E0040F02A0250
:102790009A60002038BDC3689A6842F001009860D2
:1027A00000207047C3689A6822F0010098600020FA
:1027B0007047000007B500230193019A42F02003FF
:1027C0000193019A094B61F38A120192C268019840
:1027D00010611169013B019102D001988006F8D483
:1027E0000320FEF757FE00200EBD00BF410D030081
:1027F00007B500230193019941F010020192C068CE
:10280000019B074A03610169013A019102D0019BD2
:10281000D906F8D40320FEF73DFE00200EBD00BF10
:10282000410D0300C26808B5D36801296FF35D73D9
:102830006FF39E7302D143F0005302E009B943F0F5
:1028400080433220D360FEF728FE002008BDC36815
:10285000586900F0010181F001007047C3685869B0
:1028600000F001007047C3685A69986910407047CA
:1028700003691A6861F301021A60704710B5C368F2
:1028800000226FF080414FF0FF349A6159615C6023
:1028900059610A499961C07890420CBF10211146D4
:1028A00041F4872040F00811986941F4401120EA72
:1028B000010001439961104610BD00BF000800806F
:1028C00038B5D0F80C31016900221A6015460A6843
:1028D00065F3CC220A60C37A012B04461BD1032185
:1028E000FFF7C6FFE068C02380214FF4800263F346
:1028F0000F05416261F31F4561F30F024FF4A071B0
:102900008262C0F8045161F30F056FF31F45C0F8F0
:102910000851C0F80C5110212046FFF74BFF20460C
:10292000FFF766FF206900234FF0FF320361436128
:102930008261C36161788B4214D204EB830201335C
:1029400090690168C1F3076202F08001CAB2002AEF
:1029500014BF4FF09041002101600022FF2102616D
:102960008160E7E700236078834214D204EB8300A0
:102970000133426D1168C1F3076000F08001C8B2F5
:10298000002814BF4FF09041002111600020FF216A
:1029900010619160E7E723691A6942F48071196157
:1029A000E078012804D1054A402161F359421A63B5
:1029B0002046FFF763FF002038BD00BF0301010080
:1029C00003699868C0F341014B1E022B02D8024AEA
:1029D000D05C7047032070479B360008036981690B
:1029E00010B59C680A68C4F34100022802D06FF356
:1029F0000A0202E0032060F30A020A60596841F407
:102A000080725A60002010BD30B54D780B780022DE
:102A1000012D00EB830405D105FA03F5A46965F3E4
:102A20000F0205E0012505FA03F3646D63F31F420D
:102A30002368C3F3072505F08005EDB26DB98D68F5
:102A400065F30A03CD78C98865F3934361F399531D
:102A500043F0805343F4004121600069C3691A4385
:102A6000C261002030BD30B54D780B780024012DB7
:102A7000224600EB830105D105FA03F3896963F36C
:102A80000F0205E0012505FA03F3496D63F31F42C8
:102A900000696FF3CF340C60C16921EA0202C261A0
:102AA000002030BD70B54E780A78012E0B4600EB41
:102AB000820148D18D695C6929682A6964F3120230
:102AC00014B966F3DC420BE09E68A419013CB4FB28
:102AD000F6F6DC7866F3DC42012C08BF64F35E7224
:102AE0002A61C278012A06D11A7800EB82041A6999
:102AF000A46962610CE0DA78012A09D05A693AB116
:102B000002691C78556B012606FA04F42C435463C1
:102B1000DA78012A07D102699268D20554BF41F0E0
:102B2000005141F080511A7800EB820241F00441DB
:102B300092691160D978012937D1D9681A789B8AAE
:102B4000FFF760FD31E04D6D5E692A689C68296978
:102B50002EB964F31201012464F3DC410AE0361952
:102B6000013EB6FBF4F666F3DC41B605B60D7443E0
:102B700064F312012961C178012905D11C7800EBA9
:102B800084014C6D19696161D978012906D159799F
:102B900011B142F0005201E042F080521B7800EB8C
:102BA000830042F00441426D1160002070BD73B596
:102BB0004D78012D3DD183694A691E681C690094D6
:102BC000E4B242B962F306049DF802208DF8004099
:102BD00065F3C4020EE08D68AA428ABF4D6162F3BC
:102BE000060465F306049DF802208DF800400124D8
:102BF00064F3C4028DF80220009A1A61C278012A97
:102C000005D10C7800EB840294690A69626146F090
:102C100004461E60C378002B34D14A69002A31D0A3
:102C200003690A78586B012101FA02F202435A63E0
:102C300028E00B784E6900EB8302536D8A681D68AB
:102C40001C690094E4B206B14A6162F306049DF87F
:102C500002208DF80040012464F3C4028DF80220A4
:102C6000009A1A61C378012B05D10A7800EB820320
:102C70005A6D0B695361097800EB810045F00445FA
:102C8000426D156000207CBD4B780978012B00EB6C
:102C900081000DD180690368C3F3076202F08001EF
:102CA000CAB20AB143F0804343F40011016004E06A
:102CB000436D1A6842F400111960002070474B7888
:102CC000012B0B78C97800EB83000CBF8269426D41
:102CD0001368881E6FF35553012898BF43F0805343
:102CE00013600020704703699A69D8691040000C8E
:102CF000704700EB810102694B6D9968506908408B
:102D0000704703699869D969084080B2704782B0FA
:102D100000230093C021012200238DF8031062F3E9
:102D2000C40318218DF802308DF80010436D009A0D
:102D30001A61C178012906D100F2CC5058611A6895
:102D40004FF080221A6002B0704710B50446FFF7BA
:102D50007DFC012384F81231002384F81431627859
:102D6000934213D2282202FB034101F58E72012007
:102D700081F81D0181F81C31A1F822314020002189
:102D8000D1709060D16051610133E8E70023607831
:102D9000834213D2282101FB034000F55D7200211C
:102DA00080F87433A0F87A3380F8751380F87713BD
:102DB00040209060D16051610133E8E72046FFF781
:102DC000F1FC2046FFF7A2FC00212046FFF72AFD78
:102DD0002046FFF775FD2046BDE81040FFF7DBBC3D
:102DE00070B5CDB201F07F044FF0280606FB040455
:102DF00015F0800F14BF04F58E7404F55D7401F0B6
:102E00007F01ED0921706570A260E37005B1E1807A
:102E1000022B01D1002323712146FFF7F5FD00208D
:102E200070BD10B5CAB201F07F034FF0280404FB57
:102E3000030312F0800F14BF03F58E7303F55D7367
:102E400001F07F01D20919705A701946FFF70BFE85
:102E5000002010BD38B501F07F04282505FB0405CE
:102E600005F55D7185F874434B610023CA608B6181
:102E70004B70C378012B05F55C7508BF0A6114B966
:102E8000FFF795FE01E0FFF70DFE002038BD70B59D
:102E900001F07F04282505FB040505F58E71012648
:102EA000CA600A61002285F81C414E7005F58C75D8
:102EB0008A614B6114B9FFF77AFE01E0FFF7F2FD7A
:102EC000002070BDCAB212F0800F10B54FF0280379
:102ED00006D001F07F0403FB040303F58E7303E0C7
:102EE00003FB010404F55D73D209012401F07F01A5
:102EF00019709C705A701946FFF7C6FE002010BD6D
:102F0000CAB212F0800F10B54FF0280306D001F0BE
:102F10007F0403FB040303F58E7303E003FB01044A
:102F200004F55D730024D20901F07F0119709C70D3
:102F30005A701946FFF7C3FE204610BD02690023F0
:102F400061F30A1311680B431360704703695A68F1
:102F500003206FF341025A60FEF79FBA03695A6873
:102F600042F0020058600320FEF797BA2DE9F04FB7
:102F700085B00446FFF76BFC08B900203AE2204612
:102F8000FFF771FC07460028F7D0C0F3074A0AF0A4
:102F90000800C0B2002856D02046FFF7A4FEA34682
:102FA000804626464FF00009B8F1000F4AD018F0CD
:102FB000010F3FD05FFA89F3194620460093FFF7CF
:102FC00098FE10F0010F0546009B20D0706D012582
:102FD0008560E178A94207D10269DBF87C13C2F36E
:102FE00012000A1ACBF88C237148016820460A683F
:102FF00019469047E378012B09D1B9F1000F06D1AA
:1030000094F81101052802D12046FFF780FE05F053
:103010000201CAB212B1736D02259D6005F008006D
:10302000C1B239B1624A15682046AB689847706DE5
:103030000821816009F101094FEA580804360BF1B3
:10304000280BB1E701200AF0040A5FFA8AF3002B8B
:1030500000F0B1802046FFF754FE264681464FF02F
:103060000008B9F1000F00F0A58019F0010F00F081
:1030700099805FFA88FA236904EB8A0019695D6B0D
:10308000826925FA0AF59068EA01D5B20D43054038
:10309000EA071BD5586B464A012505FA08F120EAD4
:1030A00001005863B36910689D605146436820462B
:1030B0009847E178A94209D1B8F1000F06D194F8F8
:1030C0001121042A02D12046FFF721FE05F0080055
:1030D000C3B213B1B16908258D6005F01002D0B2FA
:1030E00010B1B36910259D6005F04001CAB212B15C
:1030F000B0694025856005F00203D9B211B1B2690B
:103100000225956025F07F0010F0FF0F4AD028239C
:1031100003FB084101F58C75019504356869AB69BD
:10312000AA68C11AB069914238BF0A4602F1030C7D
:1031300082694FEA9C0C93B2634530D9A9696A69E8
:1031400091422CD25AB3A868C1EB020B834528BF29
:1031500083460BF1030E4FEA9E0CE968CDF800C0E0
:1031600052461FFA8BF32046FFF74CFAEB68AA6928
:10317000DDF800C003EB0B010BEB0200E960A86176
:103180006969B36988429A69D5D30198256902793A
:103190006B6B012101FA02F023EA00036B63B5694E
:1031A0008022AA6008F101084FEA5909043658E75D
:1031B000040000200120FDB205F00201CAB212B1E4
:1031C000E36802215961C7F3076202F08003D9B2B4
:1031D000C9B1A07A40B1D4F80C31D4F80C216FF306
:1031E00041036FF3000313602169844A486820F0AB
:1031F00001034B60116820468B699847E0684FF0E7
:10320000004242610120C7F3072808F00801CBB251
:103210006BB37A4994F812210B6800208DF80F00E7
:103220008DF80F2020465A6990472069E36882682C
:103230004FF400615961A07AC0B1D30716D594F854
:103240001521012A12D19DF80F30032B0ED1D4F88D
:103250000C11086840F001020A600B6843F003009B
:10326000086067490A6942F006030B61012005F016
:103270000801CAB242B1614803682046D96888474C
:10328000E06808224261012005F01005EDB2002D32
:1032900035D0E668B36923F01001B161366A28229F
:1032A00006F00F00C6F3434302FB0045022B05F571
:1032B0005D750DD0062B1CD104F2CC51204608229E
:1032C000FFF7B3F9A969C6F30A168819A86110E0D7
:1032D00047F6F072324062B1C6F30A16E968324628
:1032E0002046FFF7A2F9EB68A86999198619E960E9
:1032F000AE61E3689A6942F010019961012008F01B
:103300001003DAB2002A34D026697068002520F054
:103310000101716020462946FFF74CFA23462A46F0
:1033200066780433B24206D25E69FF21B160186D3F
:1033300001328160F4E70126206966F30F050B2155
:103340004FF0FF3266F31F458261C5614161016143
:1033500003686FF30A1303602046FFF7D8FC274980
:10336000E0680B684FF4805242611A69204690472A
:10337000304608F020085FFA88F1E9B12046FFF7EF
:103380002DFBE5682046ED68FFF71AFB032806D100
:1033900000214FF40070A170A080092204E00120F8
:1033A0004023A070A3800522E36862F38D254FF4CB
:1033B0000052DD6001205A61C7F3074707F0100192
:1033C000CBB24BB10D4802682046D1698847E3680B
:1033D0004FF480105861012007F02007FFB24FB171
:1033E000064A116820460B6A9847E0684FF40012BD
:1033F0004261012005B0BDE8F08F00BF040000204D
:1034000000ED00E010B50023934203D0CC5CC4541F
:103410000133F9E710BD0000FFFFFFFF00000000CF
:10342000000000000040000808000000000000004C
:1034300000800008100000000000000000C000082C
:10344000180000000000000000000108200000003B
:10345000000000000000020828000000000000003A
:103460000000040830000000000000000000060812
:1034700038000000000000000000080840000000C4
:103480000000000000000A084800000000000000E2
:1034900000000C08500000000000000000000E08B2
:1034A00058000000000000000000020303010203B6
:1034B00003030303020203014D494F53333200411A
:1034C0005544494F5448494E474945535F5036008B
:1034D00053544D3332463478780025303878003FE5
:1034E000002564004D494F53333220426F6F746C96
:1034F0006F616465720028632920323031342054B2
:103500002E204B6C6F736500202530325800202030
:103510002000253038582000F000007E32000000E6
:10352000E9130008C5130008AF12000800000000EE
:10353000B3120008B3130008A11300080000000034
:103540000000000000000000B91200086D13000820
:10355000040309041201000200000040C016FE032B
:1035600010100102030100008D12000899120008DA
:1035700075130008FD120008C51200086913000841
:10358000651300083432006D696469626F782E6FCC
:10359000726700090265000201048032090400001C
:1035A00000010100020924010001090001010904D0
:1035B000010002010300020724010001410006246A
:1035C0000201010006240202020009240301030192
:1035D000020100092403020401010100090502029D
:1035E000400000000005250101010905810240009D
:1035F0000000000525010103A5120008A71200081C
:10360000E1130008AB120008AD120008A91200086F
:10361000DB130008286E756C6C2900D10FED54CFB8
:10362000C5FBB89752389138910E7D0FED38930154
:10363000910E9100C11F020E91F7041040006E1010
:103640006EE76A00000000000000000000000000BB
:103650000000000000000000000400000000000066
:10366000000000000000002F55461F00D8484037DA
:103670006AF76A00300000C7062E734A2C137BE9F4
:103680007F32002A280D9BFE0B21EF422A2F73B5B3
:10369000B8DA76E679BF0FEB793E0B020102000043
:1036A00010100000080000202D200008791F0008DD
:1036B000311F0008D71E0008031F0008BB1E0008AA
:1036C000A51E0008E71E0008F51E00080000000007
:1036D0000000000000000000FFFFFFFFFFFFFFFFF2
:1036E000FFFFFFFFFFFFFFFFFFFFFFFFFFFFFFFFEA
:1036F000FFFFFFFFFFFFFFFFFFFFFFFFFFFFFFFFDA
:10370000FFFFFFFFFFFFFFFFFFFFFFFFFFFFFFFFC9
:10371000FFFFFFFFFFFFFFFFFFFFFFFFFFFFFFFFB9
:1040000000000220DD1A0108D91A01082D1101084B
:10401000D91A0108D91A0108D91A010800000000AC
:10402000000000000000000000000000111801085E
:10403000D91A01080000000081180108D1180108F0
:10404000D91A0108D91A0108D91A0108D91A010880
:10405000D91A0108D91A0108D91A0108D91A010870
:10406000D91A0108D91A0108D91A0108D91A010860
:10407000D91A01085939010839390108D91A010832
:10408000193B0108D91A0108D91A0108D91A0108DF
:10409000D91A0108D91A0108D91A0108D91A010830
:1040A000D91A0108D91A0108D91A0108D91A010820
:1040B000593B01087D3B0108D91A0108BD4F010891
:1040C000C94F0108A54F0108B14F0108D91A0108CD
:1040D000D91A0108D91A0108D91A01087949010821
:1040E000D91A0108D91A0108D91A0108D91A0108E0
:1040F000D91A0108D91A0108D91A0108D91A0108D0
:10410000D91A0108D91A0108A13B0108D91A0108D6
:10411000D91A0108D91A0108D91A0108D91A0108AF
:10412000D91A0108D91A010819390108D91A010840
:10413000D91A0108D91A0108D91A0108D91A01088F
:10414000D91A0108D91A0108D91A0108393E0108FB
:10415000D91A0108D91A0108D91A0108D91A01086F
:10416000D91A0108D91A0108D91A0108D91A01085F
:10417000D91A0108D91A0108D91A0108D91A01084F
:08418000D91A0108D91A01083F
:020000040801F1
:1000000000F0E0BC0122064B02FA00F019B11A68B8
:1000100040EA020102E0196821EA00011960704714
:100020006400002008B54FF0FF3000F0D5FE00203E
:1000300000F00AFD00F0C6FD002000F0E7F9002006
:10004000BDE8084000F0F4BC38B503F00FF9094CE6
:10005000094B2268186880EA0205206003F01AF94B
:10006000ED0506D02168CB05D80DBDE8384000F07D
:100070006DBC38BD600000206400002008B500F0B1
:1000800011FE01F08FFD054800F08AFE044801F0E2
:100090007BFEBDE8084000F0D9BA00BF05000108AA
:1000A00001000108704700F013BA000090F9022027
:1000B000F0B54778574E53005501EC1A07F07F030F
:1000C000A5191E03544B33F912200C2496FBF4F7A8
:1000D00092FBF4F6BC196FF48F77E319C3F385161E
:1000E0004E4A4F4C32F8167003F03F0634F8162093
:1000F0001E135743C6F10A0447FA04F7476347F251
:1001000030547F0BA74205DCB7F5806FACBF3C468F
:100110004FF480640A7C4F7C6FF0F70C0CFB02FC00
:100120000CF50046C7F17F07CCF5004C07FB06F243
:1001300007FB0CF7FF11D2119442A8BF2246BC4224
:10014000B8BF3C461719B61A06EB670686804FF40F
:10015000000696FBF2F296FBF4F4C2800481CE799D
:10016000022E05D042F6E162012E08BF134600E0E0
:100170002C4BCE788C78F20002EBC414A4F5085610
:100180009B19C3F38514254A03F03F0632F8142067
:10019000234C34F816601B137243C3F10A0442FA6D
:1001A00004F2560B826347F23052964205DCB6F5F4
:1001B000806FACBF32464FF480620B7849786FF0A5
:1001C000F7065E4306F50044C1F17F01C6F500461F
:1001D00001FB04F37143C911DB119A42A8BF134616
:1001E0008A42B8BF0A469918E41A04EB61044FF436
:1001F000000191FBF3F391FBF2F28381C178EB886C
:10020000C2814B43DA112B8944815943C91182843D
:10021000C184F0BDE0050020500E002054A001086C
:10022000D4A00108E1EEFFFF2DE9F74F6F4C002845
:1002300014BF10200020251809F0BAFB00236C4AD7
:1002400099189F58CE88380C083340EA0644202B72
:1002500045F8044BF3D1674D674F2B685E1C06F0E1
:100260000F0150224A43D3190621C6F3001700920A
:1002700093F902202E607943500018314FEA421959
:1002800093F901605D4DC0EB09095818002E4D44EB
:10029000448805DB5A4EB25C161C18BF012600E0EC
:1002A00001265A5A002A39D00EB905225A5233F87B
:1002B00001B007F1010A05EBCA0A0BF1FF3B0AF195
:1002C000060C2246CDF804B0BBF1040F26D8DFE8B7
:1002D0000BF0030C14251F00BAF80620A2184FF6E5
:1002E000FF74A2421ADD02220FE0621E4FF6F07484
:1002F000A24213DC03245C5210E0BCF80220A21AD4
:10030000BCF80440A24209DA04225A52224605E00F
:10031000BCF80620A21A01D500225A5242807AB1B6
:10032000C2F38514374902F03F0E31F81410364CF1
:1003300034F81E4012136143C2F11F0241FA02F267
:100340008280002F39D1DA8A042AC4BF8188998239
:100350009C8A81888C4208BF0022501CD8825A8A0D
:100360000EB901211982188A60B9DFF890B039F806
:100370000B004FF6FF7112188A4207DD01221A8224
:100380000A4603E06988521A22EAE2725A8292B15E
:10039000C2F385141B4830F814101B4802F03F04C8
:1003A000121330F814004143C2F11F0041FA00F269
:1003B000A9884A4312141A8515E0A87ADA781B8CAA
:1003C00010FB00F195F90B00424392115A43D313ED
:1003D00013EB112203D4FF2AA8BFFF2200E0002262
:1003E000009905480A54BDE8FE8F00BF6800002050
:1003F000A00E002088000020C0070020E00500209B
:10040000C00E002054A00108D4A00108084B7F2290
:10041000402050211A759A739A72D875D8749975BC
:10042000044B054801221A70044A082103F056BB08
:10043000C00C0020400E00206800002029020108A6
:10044000024B182202FB0030704700BFC00C002096
:10045000024B01221A540020704700BF400E0020BA
:10046000182303FB0011014A505C7047C00C0020A8
:10047000182303FB00130349CA54034B01221A54E7
:1004800000207047C00C0020400E002010B504462C
:1004900002F0ECFE002301210F2023836383A3835A
:1004A000E38323846384E3822182638223856385DB
:1004B000E364E3632370A070A382A364E3626363D5
:1004C000A36363642364BDE8104002F0E3BE000050
:1004D0002DE9F843C1F30328C1F30763C1F30746CD
:1004E00001F00F0108395FFA88F5DFB2062900F242
:1004F000A080DFE801F004059E259E9E55000027A0
:1005000000224D4B10464FF0FF3C198B1C4651B159
:1005100093F90290A94507D193F8019009F07F095A
:10052000B14501D155E006215C8B0904091B6145E9
:10053000C4BF10468C4601325033102AE5D152E038
:10054000782E01D07A2E09D900243B49081950345D
:10055000FFF79CFFB4F5A06FF7D16AE0402E02D1FF
:10056000364A535565E0A6F110000F2809D8344AE1
:10057000182101FB0520334A81190120505501F84B
:10058000103CA6F16601072953D82D4A182000FB1C
:1005900005218E19012006F8563C2A4B585548E093
:1005A000A6F50056284806EBC71720F8157000245A
:1005B000214AA01890F90230AB4205D1204A1821F7
:1005C00001FB0521FFF772FD5034B4F5A06FEFD1A8
:1005D0002FE087B91848502101FB0202537803F03D
:1005E0007F01517025E027B3134B502404FB0034E6
:1005F0002046FFF74BFF66F07F0602F037FE66707D
:1006000084F80280E77002F045FE0D4A182120466A
:1006100001FB0521FFF74AFD02F028FE002301201F
:100620002083E083E382238263822385A36402F034
:1006300031FE0020BDE8F883C0070020C00E002076
:10064000C00C0020400E0020500E0020F8B5584C81
:100650000026584BF25C2AB901361E34102EF8D110
:100660000020F8BD5449182505FB06150020A9797E
:10067000F05449B101F00F0350480F1130F8331016
:10068000C7F1070241FA02F12F79A18017FB07F2A7
:1006900013116A79581C4FF6FF7191FBF0F77F2A0E
:1006A000278002D10027678005E012FB02F3581C67
:1006B00091FBF0F161802A7B12FB02F318116B7B36
:1006C000411C4FF6FF7713FB03F097FBF1F2411C3F
:1006D000A87BE28197FBF1F2228210B1C301A3F55E
:1006E00080406082E97B11FB01F2297A531C11FBE7
:1006F00001F297FBF3F013116A7AA082581C12FBE7
:1007000002F397FBF0F1581C97FBF0F72783AF7AC1
:10071000E1824FB107F00F032848391130F83370E8
:10072000C1F1070247FA02F7E97A678311FB01F288
:10073000531C4FF6FF70297D90FBF3F7EB7CA783EA
:100740004A006F7DA2725800AA7CAB7D627380382C
:100750006FEA4701E07221734BB11811174903F09A
:100760000F03C0F1070731F8333043FA07F3EA7D8E
:10077000134922F00107C7F1FE00803731F910203C
:1007800031F917705A437B43D013DB13E080238188
:1007900000270C49781890F90220B24202D129466C
:1007A000FFF784FC5037B7F5A06FF2D154E700BFD4
:1007B000E0050020400E0020C00C002054A00108DD
:1007C00054A10108C0070020014B1868704700BF02
:1007D0008C000020014B1868013070479400002005
:1007E000024B013919600020704700BF94000020BF
:1007F0000748084B007810B51C88FFF721FE2146FA
:10080000024618230020BDE8104000F08FB900BF59
:10081000940000208C0000200E4A38B50E4B824216
:100820000C46196012D10D4D0D4801F0BDFD287820
:10083000FFF706FE214602461823002000F041F98A
:10084000044620B92878FFF703FE00E00024204684
:1008500038BD00BF94A401088C0000209400002043
:10086000C0A6010808B5044B0A4601781878FFF7BE
:10087000FFFD002008BD00BF9400002008B5034B19
:1008800001781878FFF7ECFD08BD00BF9400002048
:1008900070B50E46044610B94FF0FF3070BD52B12E
:1008A0008800002918BF013080B2002101F0C6FA8B
:1008B000A06801F059FB6278114B53F832100029FF
:1008C000EAD020468847B6000546701C012180B258
:1008D00001F0B4FA94F90230991C02D05A1C05D1E7
:1008E000403D2946074801F069FB06E0064A52F8F8
:1008F000231051F8250001F037FB002070BD00BF28
:100900000CA50108D4A6010888A3010838B505463E
:1009100000F092FAB5B1002100F06AFA4FF6FF71CB
:10092000288800F065FA01F0C1FA002405EB840381
:100930002146012258680134FFF7AAFF062CF5D1A1
:10094000002038BD4FF0FF3038BD0000184B70B5A7
:100950001E68186020EA060501463246154801F077
:1009600023FDE5B114480068002214491301CC1896
:10097000C95809B1814214D1A388AB4211D1E18891
:10098000B1420ED1A1680C4D0D48296001F00CFD5B
:10099000E2680AB1286890472868FFF7B7FF00208F
:1009A00070BD01320A2AE0D14FF0FF3070BD00BFA8
:1009B00090000020D8A6010898000020ECA50108AE
:1009C00005A70108184B70B5054618680E4610B902
:1009D0004FF0FF3070BD00EB85014C68002CF7D064
:1009E0006278124B53F832100029F1D02046884724
:1009F000237982199A4203DCE3789A42A8BF13460E
:100A000098420ED06078094901EBC0025268002A72
:100A1000DED0D9B220469047204629460022FFF773
:100A200037FF002070BD00BF980000200CA5010812
:100A300008B50348034B1860FFF768FF002008BDA6
:100A400050A501089800002008B904F0FFB86FF025
:100A500001007047F0B50C4685B005460021012025
:100A600017461E4604F030F905F007004100230A3E
:100A700041F0A00502228DF80C30009201200321E4
:100A80002A4603AB8DF80D4004F010FA044690B9E5
:100A9000012004F069F9044668B966B12146009660
:100AA00001202A463B4604F001FA044618B9012009
:100AB00004F05AF90446012004F026F9204605B056
:100AC000F0BD890189B2FFF7C5BF00002DE9F341F0
:100AD00004460E4604F007070021134C01201D4672
:100AE000904604F0F1F87800330A2A4660F05F0778
:100AF0004146A01C2370667009F092FAA91C8DB2C1
:100B0000012023460095014607F0AE0204F0CEF91D
:100B1000044618B9012004F027F90446012004F026
:100B2000F3F82046BDE8FC819C0000208901402BA1
:100B300010B589B21C4607D8CC18B4F5803F03DC49
:100B4000BDE81040FFF7C2BF6FF0010010BD73B5E4
:100B5000054668460E46144604F05FFC02238DF8F5
:100B600005300096062C29D8DFE804F02604090F8A
:100B700013181D0003208DF80400002302E0002359
:100B80008DF804308DF8073012E000228DF8042033
:100B9000F8E700218DF804100123F3E701208DF818
:100BA0000400002302E001238DF804308DF80630A4
:100BB0002846694604F0E4FB002001E06FF00100E4
:100BC0007CBD00007FB5354C012102222046FFF795
:100BD000BEFF022105222046FFF7B9FF04210522AE
:100BE0002046FFF7B4FF082105222046FFF7AFFF9C
:100BF00004250823022065832021238305222083E6
:100C00002046FFF7A4FF402105222046FFF79FFF63
:100C1000802105222046FFF79AFF052220464FF447
:100C20008071FFF794FF4FF480762021802261834A
:100C30001B486683402162830322FFF788FF314609
:100C400003221748FFF783FF03224FF40071144873
:100C5000FFF77DFF124829460522FFF778FF0024A1
:100C6000204600F071FFFF25039001230090C0F3A0
:100C700004208DF80C5063F30100002565F3840017
:100C80008DF80D008DF80E5020460399013400F0C8
:100C90004DFF062CE4D1284604B070BD0000024090
:100CA0000008024038B5354B354808225A835A832C
:100CB0001A83002202601146304B324D02205883C5
:100CC000588358831C694D5D188304F00104013179
:100CD00004FA05F4182942EA0402EDD12A4B1869F6
:100CE0001C691B69C4F30021C3F34024A30143EA38
:100CF000C103C0F3801003431343214A1360234A06
:100D0000116889B922490D6883EA05004404650C1D
:100D100044B120480B6004681F492C430B60322308
:100D200004601360002402E04C1E1460FAE71449CA
:100D300004F108020B68500023FA00F202F00301EC
:100D40002046013400F014FF062CF0D1134804684B
:100D500008200A4B24FA00F111F0010F4FF0400275
:100D600014BF1A835A83802101381983034A598397
:100D7000EFD14FF480731383538338BD00000240DA
:100D8000E40E0020D4A7010800080240DC0E002079
:100D9000D80E0020E00E0020D00E0020D40E00203F
:100DA0000B4B70B500241D681C600646012000FA3C
:100DB00004F0284207D0074A116808420CBF0021FE
:100DC00001212046B04701341C2CEFD1002070BD1A
:100DD000E00E0020D00E002008B5C30704D503485C
:100DE00004210522FFF7B3FE002008BD00080240E1
:100DF000C20738B5044601EA000507D50C4B15F0CB
:100E0000010F4FF0040214BF1A835A8324F060408C
:100E100020F0010149B102F029FA064B1A6822EAD2
:100E2000040425431D6002F035FA002038BD00BFE0
:100E300000080240D40E0020034B044958690A6898
:100E4000C0F380001043704700080240D40E002019
:100E500007B500F0E3FA0190012101A800F00AFCB7
:100E600000F0DCFA019B421F934238BF019001F071
:100E700071FEFFF703F9EFE707B500F0CFFA019035
:100E8000012101A800F0F6FB00F0C8FA019B421F07
:100E9000934238BF019001F0D7FA034801F088FD72
:100EA000FFF700F9ECE700BFA700010837B5002005
:100EB00002F044F9002002F085FE002002F06CF8F8
:100EC000002002F0FDFB002002F062F8002002F09A
:100ED0005CF8002001F088F8002003F021F80020E1
:100EE00001F000FE002001F003FE002000F0E0FF12
:100EF000002002F041FD09F06DF8FFF793F801F0D2
:100F00003FF84FF4FA644FF47A7002F07DFE013C32
:100F1000F9D10325234600950194094909484FF466
:100F2000807200F06BF9084900954FF480722346F7
:100F30000194064800F062F900F036FA20463EBD02
:100F4000F1A70108510E0108ECA70108790E01086C
:100F500002F02CB8FFF778B810B5002401346423F0
:100F6000B4FBF3F203FB124008B901F06DFA094833
:100F700001F01EFD42F21071B4FBF1F301FB1342CC
:100F8000002AEBD1FFF758FFC1430120FFF730FFE4
:100F9000E4E700BFA700010808B56FF07F4001F04B
:100FA0001FF8002001F01EF8002000F041FF00F0C3
:100FB0007DFF0020014600F041FF074800F0D4FF0C
:100FC0000121002000F03AFF044800F0CDFF044862
:100FD00001F0EAF9FFF7C0FFF7A7010808A8010828
:100FE00019A8010810B5036841688268C46888B010
:100FF000009303690191029241698269C069039477
:101000000493334C0591069207900699314801F0FC
:10101000CBF9204601F0C8F92F4801F0C5F9204668
:1010200001F0C2F900992D482D4C01F0BDF901994C
:101030002C4801F0B9F902992B4801F0B5F9039950
:101040002A4801F0B1F90499294801F0ADF9059950
:10105000284801F0A9F90699274801F0A5F9079950
:10106000264801F0A1F9264B2648196801F09CF9A1
:1010700025492648096801F097F9254A254811684D
:1010800001F092F924480168244801F08DF92168A3
:10109000234801F089F96FF07F4000F0A1FF0020A4
:1010A00000F0A0FF002000F0C3FE00F0FFFE0020D3
:1010B000014600F0C3FE1B4800F056FF012100204E
:1010C00000F0BCFE0699184800F078FFFFF744FFD7
:1010D00063A801084DA8010877A801088BA801089A
:1010E0003CED00E096A80108A1A80108ACA8010801
:1010F000B7A80108C3A8010858A80108CEA801088C
:1011000038ED00E0DAA8010828ED00E0E7A80108C2
:101110002CED00E0F4A8010830ED00E001A9010881
:101120000EA901081BA901082CA901081EF0040F33
:101130000CBFEFF30880EFF30980FFF753BF704750
:10114000F8B51E4D1E4B04461E6828680F462968D8
:10115000002280F84C20081D00F018FB48B9194BFC
:1011600019682868C26A012000FA02F221EA020125
:101170001960631C114807D137B102681248111D6C
:10118000BDE8F84000F0DEBAA41902680B4B5460C9
:10119000B44207D20D4908681B68191DBDE8F84024
:1011A00000F0DCBA0A4908681B68191D00F0D6FA7D
:1011B00008480268944238BF0460F8BD84010020EA
:1011C0008C010020DC010020C801002090010020DB
:1011D000E400002088010020064A074813681968C7
:1011E00011B94FF0FF3203E01268D368D9684A683A
:1011F00002607047E4000020880100202DE9F84FCC
:101200004FEA820B814658460E46924698460B9FFF
:1012100000F0BCFB0546002800F0A580502000F03F
:10122000B5FB044670B105635A462846A52108F06F
:1012300000FF236B0AF1FF3A03EB8A0020F0070B53
:10124000002506E0284600F021FC8CE00135102D39
:1012500006D0725D611981F83420735D002BF5D1E1
:101260000A9E0025042E34BFB2464FF0040A261D04
:10127000304684F84350C4F82CA0C4F844A0A564B8
:1012800000F05DFA04F1180000F059FACAF1050007
:10129000A0612461646284F84C5058464946424635
:1012A00000F09EFA206007B13C6000F0C9FA304AB5
:1012B000304811684B1C1360056815BB046010684A
:1012C000012827D12C4A142707FB0520013500F0FF
:1012D0002BFA052DF6D1294F294D384600F024FA76
:1012E000284600F021FA274800F01EFA264800F0B0
:1012F0001BFA264800F018FA2549264B0F601D609E
:1013000008E0254D2A682AB90168E56ACB6AAB4234
:1013100098BF04602148E36A0268551C204A0560B2
:101320001168012505FA03F001431160124A1420E7
:1013300000FB0320314600F005FA00F091FA164B4D
:10134000196869B10B48E36A0268D16A994207D209
:10135000144A4FF080501060BFF34F8FBFF36F8F70
:101360002846BDE8F88F4FF0FF30BDE8F88F00BF8A
:10137000AC0100208401002008010020F0000020C2
:10138000B0010020940100206C010020C801002061
:10139000E400002090010020E8000020A8010020C7
:1013A000DC01002004ED00E013B5124B124801935C
:1013B0000024009411494FF480722346FFF71EFF6A
:1013C000012814D14FF0BF0383F31188BFF36F8F4F
:1013D000BFF34F8F0A490B4B4FF0FF320A60186082
:1013E0000948046002B0BDE8104000F093BA02B0B2
:1013F00010BD00BFC4010020FD15010839A9010876
:1014000088010020E80000208C010020024B1A68AF
:10141000501C1860704700BFEC000020014B18689A
:10142000704700BF8C010020F8B5354B18680028C4
:1014300036D1344B1E6801361E605EB9324A334DD8
:1014400011682868324B106029601A68511C1960B5
:10145000FFF7C2FE2F4D28680025864210D32A4B85
:101460001A68116821B92B4B4FF0FF30186007E064
:101470001C68E068C46863689E421FD225490B60FF
:10148000254A1168254AC86A14235843115824482C
:101490000368012988BF01254BB9FFF759FD06E014
:1014A0001F490A68551C0D60FFF752FD00251D4AB3
:1014B000116800290CBF28460120F8BD271D3846B9
:1014C00000F064F9A26A1AB104F1180000F05EF9A4
:1014D000154AE36A1068012101FA03F10143116022
:1014E0000E4A142000FB0320394600F02BF90A4B6A
:1014F000E06A1968CA6A904228BF0125AFE700BFB9
:10150000EC0000208C010020E4000020900100206D
:10151000E000002088010020840100200801002054
:1015200004010020E0010020DC01002070B500F083
:1015300087F9294B1A68501E18601C680CB10024EA
:1015400045E026490B68002BF9D0254D2A680AB3DF
:10155000EE68F468261D04F1180000F017F9304613
:1015600000F014F91F4AE36A1168012505FA03F037
:10157000014311601C4A142000FB0320314600F097
:10158000E1F81A4BE06A1968CA6A904224BF184809
:101590000560DAE70CB1FFF71FFE16480468054640
:1015A00044B1FFF741FF10B1114B01211960013C1B
:1015B000F7D12C600E4A10680028C0D00E4B4FF0B7
:1015C00080511960BFF34F8FBFF36F8F012400F07C
:1015D00047F9204670BD00BFEC000020AC010020A0
:1015E00094010020DC01002008010020840100207B
:1015F000E00100200401002004ED00E070B5184C6B
:101600002368F3B1174DFFF701FF2E68FFF78EFF38
:10161000002EF4D000F014F9EB68DD68281D00F00E
:10162000B5F8114801684A1E02602668731E2360DF
:1016300000F016F9286B00F029FA284600F026FA87
:10164000DDE70A480168012907D9094D4FF08052AA
:101650002A60BFF34F8FBFF36F8FFFF77BFCCEE79E
:10166000800100206C010020AC0100200801002056
:1016700004ED00E038B504460D46FFF7C7FE134BF6
:1016800022681868904205EB020102D2914207D20B
:1016900001E0914206D3814294BF0022012202E080
:1016A000002200E0012221601AB1081A0021FFF790
:1016B00047FDFFF73BFF38B9054B4FF080501860EE
:1016C000BFF34F8FBFF36F8F38BD00BF8C01002079
:1016D00004ED00E00F4B1A680F4B0AB1012217E02E
:1016E0000E481A600168B1FA81F3DAB20C4B14218A
:1016F000C2F11F0001FB003000F10801426853688D
:101700008B42436004BF5B6843604068054BC2681E
:101710001A607047EC000020E0010020DC0100208E
:10172000080100208401002000F108034FF0FF327F
:10173000002143608260C360036101607047002341
:1017400003617047436808619A684B608A609A68D1
:101750009960516001684B1C036070470A68531C14
:1017600030B501D1036907E000F108035C68256822
:10177000954201D82346F9E75A6808614A609160AA
:1017800059608B6001684B1C036030BD4168826802
:1017900003698A60826851605968814208BF5A6053
:1017A0000022026118680138186070474FF0BF03CB
:1017B00083F31188BFF36F8FBFF34F8FFEE70000F5
:1017C00006480068006880F3088862B661B6BFF317
:1017D0004F8FBFF36F8F00DF00BF000008ED00E008
:1017E0004FF0807340F8043C054B40F8202C21F06A
:1017F000010140F8081C40F80C3C4038704700BF1D
:10180000AD1701080000000000000000000000000B
:10181000074B19680868B0E8F00F80F30988BFF338
:101820006F8F4FF0000080F311884EF00D0E70475F
:1018300084010020AFF30080AFF30080AFF300809D
:101840004FF0BF0383F31188BFF36F8FBFF34F8F48
:10185000024B1A68501C1860704700BF000000203F
:10186000034A1368581E106008B980F31188704746
:101870000000002000000000000000000000000048
:10188000EFF30980BFF36F8F0D4B1A6820E9F00F5B
:1018900010602DE908404FF0BF0080F31188FFF77A
:1018A00019FF4FF0000080F31188BDE80840196867
:1018B0000868B0E8F00F80F30988BFF36F8F7047B6
:1018C00084010020AFF30080AFF30080AFF300800D
:1018D00008B54FF0BF0383F31188BFF36F8FBFF3D9
:1018E0004F8FFFF7A1FD18B1034B4FF080521A60E4
:1018F000002080F3118808BD04ED00E0034B044A8A
:1019000007201A6043F8040C704700BF14E000E0A1
:101910003F90020008B5094B1A6842F47F00186036
:10192000196841F07F421A60FFF7E8FF044B00207E
:101930001860FFF745FFFFF739FF00BF20ED00E01B
:101940000000002010B50F4B1A68824201D21346E6
:10195000FAE759685C18844203D14068411859601D
:10196000184641684418944207D1074C2468A242A3
:1019700003D054681268611841608342026018BF46
:10198000186010BDEC010020E8010020F8B5054604
:10199000FFF73CFD374B186818BB374A510707D093
:1019A000D61D26F0070302F52050C11A1A4601E0A1
:1019B0004FF420515118083921F007012F4E2D48BE
:1019C0003260002373600B604B608B1A82E80A0060
:1019D0002B4E2C4A336013602B4B01604FF00041BB
:1019E00019602948066835423BD1002D3AD005F1EF
:1019F00008035A071CBF23F007030833002B2ED01F
:101A00001F4D2F68BB422CD81C4A1468616899424C
:101A100004D3184D2868844206D122E020680028AB
:101A2000F7D022460446F1E7206815681060CA1A0C
:101A30000835102A04D9E01842606360FFF782FF7E
:101A400062680F49BB1A0B600E490868834242EA7C
:101A5000060638BF0B6000226660226002E01D4669
:101A600000E00025FFF762FD0DB9FFF795FA284663
:101A7000F8BD00BFE8010020E80E0020EC010020C6
:101A8000E4010020F4010020F801002010B5044614
:101A9000E0B10F4A50F8043C1068184216D054F8D0
:101AA000081C99B923EA000344F8043CFFF7AEFC94
:101AB000084B54F8040C1A688118A4F10800196046
:101AC000FFF740FFBDE81040FFF730BD10BD00BF7D
:101AD000F8010020E4010020FEE70000684620F045
:101AE00007018D4601B500230A4A0B499818884220
:101AF00004D20A49585898500433F5E7084B094A6C
:101B0000934203D2002043F8040BF8E7FFF7CEF925
:101B1000FEE700BF000000206000002018AD0108B3
:101B200060000020C0470020704700003F2882B0BE
:101B300004D8044B43F82010002001E04FF0FF30A0
:101B400002B07047E83600203F2882B006D9002155
:101B5000012200918DF80120009802E0034B53F818
:101B600020000190019802B0704700BFE8360020C5
:101B70003F2838B504460D460FD801F077FB084BD7
:101B800013F83400024660F3830265F3010203F8A0
:101B9000342001F07FFB002038BD4FF0FF3038BD0E
:101BA000E8370020F0B50025754B13F8252003EB2E
:101BB0008507002A00F0DE807249E80043189C780F
:101BC0000CB1661E9E70465CC6F3810C06F00304E1
:101BD000A44500F0CF8006F00F04012C02D112F0D2
:101BE000100F0DE0072C02D112F0200F08E00E2C90
:101BF00002D112F0400F03E0082C57D112F0800FF1
:101C000000F0B88006F01006F6B21EB99C78E02C01
:101C100000F2B080FF2A08D1445CDA7804F00F04A7
:101C200002F00F02944200F0A580445C44F01002E0
:101C300042541A799C78A41A142C01DD14329A703B
:101C40007A7812F0030415D0022C23D19E78C2F3C7
:101C5000820206F0C004C2F1070634FA06F293F9D4
:101C6000014008BF0122A21A6FF04506B242B8BF78
:101C7000324611E05C79C2F3820204F00F04D243D1
:101C8000A21802D55C78013C5C705C7962F30304B5
:101C90005C7102E05A78013A5A709A781A71FF2200
:101CA0009A70415CDA7861F3030262E0022C02D19F
:101CB00012F0010F0DE00B2C02D112F0020F08E020
:101CC0000D2C02D112F0040F03E0042C52D112F0BB
:101CD000080F4FD006F01004E6B216B19C78E02C45
:101CE00048D8FF2A06D1425CDC7802F00F02B2EB42
:101CF000141F3FD00C5C6FF3041444541A799C7881
:101D0000A41A142C01DD14329A707A7812F00304AC
:101D100013D0022C22D19C78C2F3820204F0C004BA
:101D2000C2F1070234FA02F293F9014008BF01221E
:101D3000A218462AA8BF462212E05C79C2F38202AA
:101D4000013204F00F04A2180F2A02DD5C7801347E
:101D50005C705C7962F303045C7102E05A780132D2
:101D60005A709A781A71FF229A70405CDA7860F3A0
:101D70000712DA700135402D7FF416AF0020F0BD58
:101D8000E8360020E837002070B50646C0B10024D0
:101D900001F06CFA0C4B03EBC40045784DB12A46B8
:101DA0006FF30702427001F075FA204669B2B0473E
:101DB00001E001F06FFA0134402CE9D1002070BD40
:101DC0004FF0FF3070BD00BFE8370020104A114BC4
:101DD00011685068128919600F4958601A81087893
:101DE000422813D10D4A0E481178197002780D4916
:101DF0005A7008780C4A98701178064AFF2908BF73
:101E00004FF480719980094B1878D080002070477A
:101E100042A90108EA390020C03F0008C13F00087C
:101E2000C23F0008C33F0008C43F0008C53F000888
:101E3000014B1870002070470802002010B50B4BB2
:101E40000B4C18800B4AA388118013B1DAB2A37926
:101E500001E008230622084C42432280074A4B43F4
:101E60001380BDE8104007F081BD00BFF4390020A9
:101E7000FC010020FA390020FC390020E83900205C
:101E8000024B034A1880118007F080BDFC39002006
:101E9000E83900200023C15C034A99540133042B24
:101EA000F9D10020704700BFF639002007F05ABD75
:101EB00013B50446F0B9FFF789FF1048104B0168CD
:101EC0009C8001A80191FFF7E5FF4CF2503001F032
:101ED0009BFE204607F0FAFC00280DDBFFF7E6FF2B
:101EE00021462046FFF7AAFF20462146FFF7C8FFFC
:101EF000204601E04FF0FF301CBD00BF3EA90108A5
:101F0000FC01002030B5154B93F90010002985B075
:101F1000054619DA124B9A884FF0FF30E2B193E888
:101F2000070001AC84E80700DA881B89ADF80A20B5
:101F3000D108594305FB01000190ADF80C3094E83D
:101F4000070007F02CFD01E007F098FC002803DBF8
:101F5000044B1A88511C198005B030BDEA390020A5
:101F6000FC010020F439002038B5451E002415F886
:101F7000010F18B1FFF7C6FF0443F8E7204638BD4C
:101F800038B50B4B0024214620461C70FFF756FF46
:101F900005460848FFF7E8FF012105432046FFF703
:101FA0004DFF05430448FFF7DFFF284338BD00BF5E
:101FB00008020020C4A90108CFA901080FB400B588
:101FC00093B014AA02A852F8041B019203F039F945
:101FD00002A8FFF7C9FF13B05DF804EB04B0704727
:101FE00007F0D7BC07F0D8BC38B50546002845D166
:101FF000244A2549254C102313700B70244B254A85
:10200000254920601860254C254B10600860186039
:10201000206002F0BFF9C40F284600F00FFE002830
:10202000B8BF44F00204002000F0A7FF0028B8BFAA
:1020300044F00404002000F095FF1A4A1A4B0028CF
:10204000B8BF44F00804002010701978174A60F3F4
:1020500007011970107016480378422B04D11549F6
:102060000878010658BF1070134B144900221A80DB
:1020700000220023C1E90023604238BD4FF0FF3049
:1020800038BD00BF0500002006000020140200201B
:102090000C020020380200203C0200202C0200200C
:1020A000180200201C020020240200201E02002032
:1020B000D03F0008D13F000820020020300200205D
:1020C00010F0F00F70B505460C4604D101280CBF86
:1020D0001F4B204B1D78204B1A6805F00F06002A75
:1020E00018D105F0F00020281CD008D810282BD1DA
:1020F00066F307142046BDE8704002F04DBA302860
:1021000019D0502820D166F307142046BDE870404E
:1021100000F02DBF66F3071428462146904700289B
:10212000DFD070BD66F3071405F00F002146BDE84F
:10213000704000F033BE66F3071405F00F0021462F
:10214000BDE8704000F01EBF4FF0FF3070BD00BF13
:1021500006000020050000200C0200202DE9F041BF
:1021600080460E4617460024BC4235D23B1B022B4C
:102170000DD0032B19D0012B19D1325D052161F34C
:10218000030562F30F2501346FF317450AE0311997
:10219000305D4A78062363F3030560F30F2562F38D
:1021A000174502346FF31F650FE0072000E004209D
:1021B00060F303053019335D4178827863F30F25AE
:1021C00061F3174562F31F65033440462946FFF764
:1021D00077FF0028C8DA00E00020BDE8F0810000A9
:1021E00030B5A1B0F0238DF80030134B7E2232259C
:1021F0008DF803201A788DF8045000240F258DF8EF
:1022000001408DF802408DF805208DF8065002AB94
:102210000D5D5A1E35B101341A4603F8015C0133D5
:10222000642CF5D1F72102F8011B6946521AFFF719
